{
	"_format": "hh-sol-artifact-1",
	"contractName": "RinkebyNFT",
	"sourceName": "contracts/Mint.sol",
	"abi": [
		{
			"inputs": [],
			"stateMutability": "nonpayable",
			"type": "constructor"
		},
		{
			"anonymous": false,
			"inputs": [
				{
					"indexed": true,
					"internalType": "address",
					"name": "owner",
					"type": "address"
				},
				{
					"indexed": true,
					"internalType": "address",
					"name": "approved",
					"type": "address"
				},
				{
					"indexed": true,
					"internalType": "uint256",
					"name": "tokenId",
					"type": "uint256"
				}
			],
			"name": "Approval",
			"type": "event"
		},
		{
			"anonymous": false,
			"inputs": [
				{
					"indexed": true,
					"internalType": "address",
					"name": "owner",
					"type": "address"
				},
				{
					"indexed": true,
					"internalType": "address",
					"name": "operator",
					"type": "address"
				},
				{
					"indexed": false,
					"internalType": "bool",
					"name": "approved",
					"type": "bool"
				}
			],
			"name": "ApprovalForAll",
			"type": "event"
		},
		{
			"anonymous": false,
			"inputs": [
				{
					"indexed": true,
					"internalType": "address",
					"name": "from",
					"type": "address"
				},
				{
					"indexed": true,
					"internalType": "address",
					"name": "to",
					"type": "address"
				},
				{
					"indexed": true,
					"internalType": "uint256",
					"name": "tokenId",
					"type": "uint256"
				}
			],
			"name": "Transfer",
			"type": "event"
		},
		{
			"inputs": [
				{
					"internalType": "address",
					"name": "to",
					"type": "address"
				},
				{
					"internalType": "uint256",
					"name": "tokenId",
					"type": "uint256"
				}
			],
			"name": "approve",
			"outputs": [],
			"stateMutability": "nonpayable",
			"type": "function"
		},
		{
			"inputs": [
				{
					"internalType": "address",
					"name": "owner",
					"type": "address"
				}
			],
			"name": "balanceOf",
			"outputs": [
				{
					"internalType": "uint256",
					"name": "",
					"type": "uint256"
				}
			],
			"stateMutability": "view",
			"type": "function"
		},
		{
			"inputs": [
				{
					"internalType": "uint256",
					"name": "tokenId",
					"type": "uint256"
				}
			],
			"name": "getApproved",
			"outputs": [
				{
					"internalType": "address",
					"name": "",
					"type": "address"
				}
			],
			"stateMutability": "view",
			"type": "function"
		},
		{
			"inputs": [
				{
					"internalType": "address",
					"name": "owner",
					"type": "address"
				},
				{
					"internalType": "address",
					"name": "operator",
					"type": "address"
				}
			],
			"name": "isApprovedForAll",
			"outputs": [
				{
					"internalType": "bool",
					"name": "",
					"type": "bool"
				}
			],
			"stateMutability": "view",
			"type": "function"
		},
		{
			"inputs": [],
			"name": "name",
			"outputs": [
				{
					"internalType": "string",
					"name": "",
					"type": "string"
				}
			],
			"stateMutability": "view",
			"type": "function"
		},
		{
			"inputs": [
				{
					"internalType": "uint256",
					"name": "tokenId",
					"type": "uint256"
				}
			],
			"name": "ownerOf",
			"outputs": [
				{
					"internalType": "address",
					"name": "",
					"type": "address"
				}
			],
			"stateMutability": "view",
			"type": "function"
		},
		{
			"inputs": [
				{
					"internalType": "string",
					"name": "uri",
					"type": "string"
				}
			],
			"name": "safeMint",
			"outputs": [],
			"stateMutability": "nonpayable",
			"type": "function"
		},
		{
			"inputs": [
				{
					"internalType": "address",
					"name": "from",
					"type": "address"
				},
				{
					"internalType": "address",
					"name": "to",
					"type": "address"
				},
				{
					"internalType": "uint256",
					"name": "tokenId",
					"type": "uint256"
				}
			],
			"name": "safeTransferFrom",
			"outputs": [],
			"stateMutability": "nonpayable",
			"type": "function"
		},
		{
			"inputs": [
				{
					"internalType": "address",
					"name": "from",
					"type": "address"
				},
				{
					"internalType": "address",
					"name": "to",
					"type": "address"
				},
				{
					"internalType": "uint256",
					"name": "tokenId",
					"type": "uint256"
				},
				{
					"internalType": "bytes",
					"name": "_data",
					"type": "bytes"
				}
			],
			"name": "safeTransferFrom",
			"outputs": [],
			"stateMutability": "nonpayable",
			"type": "function"
		},
		{
			"inputs": [
				{
					"internalType": "address",
					"name": "operator",
					"type": "address"
				},
				{
					"internalType": "bool",
					"name": "approved",
					"type": "bool"
				}
			],
			"name": "setApprovalForAll",
			"outputs": [],
			"stateMutability": "nonpayable",
			"type": "function"
		},
		{
			"inputs": [
				{
					"internalType": "bytes4",
					"name": "interfaceId",
					"type": "bytes4"
				}
			],
			"name": "supportsInterface",
			"outputs": [
				{
					"internalType": "bool",
					"name": "",
					"type": "bool"
				}
			],
			"stateMutability": "view",
			"type": "function"
		},
		{
			"inputs": [],
			"name": "symbol",
			"outputs": [
				{
					"internalType": "string",
					"name": "",
					"type": "string"
				}
			],
			"stateMutability": "view",
			"type": "function"
		},
		{
			"inputs": [
				{
					"internalType": "uint256",
					"name": "tokenId",
					"type": "uint256"
				}
			],
			"name": "tokenURI",
			"outputs": [
				{
					"internalType": "string",
					"name": "",
					"type": "string"
				}
			],
			"stateMutability": "view",
			"type": "function"
		},
		{
			"inputs": [
				{
					"internalType": "address",
					"name": "from",
					"type": "address"
				},
				{
					"internalType": "address",
					"name": "to",
					"type": "address"
				},
				{
					"internalType": "uint256",
					"name": "tokenId",
					"type": "uint256"
				}
			],
			"name": "transferFrom",
			"outputs": [],
			"stateMutability": "nonpayable",
			"type": "function"
		}
	],
	"bytecode": "0x60806040523480156200001157600080fd5b506040518060400160405280601181526020017f52696e6b656279204e46542054657374730000000000000000000000000000008152506040518060400160405280600381526020017f524e540000000000000000000000000000000000000000000000000000000000815250816000908051906020019062000096929190620000b8565b508060019080519060200190620000af929190620000b8565b505050620001cd565b828054620000c69062000168565b90600052602060002090601f016020900481019282620000ea576000855562000136565b82601f106200010557805160ff191683800117855562000136565b8280016001018555821562000136579182015b828111156200013557825182559160200191906001019062000118565b5b50905062000145919062000149565b5090565b5b80821115620001645760008160009055506001016200014a565b5090565b600060028204905060018216806200018157607f821691505b602082108114156200019857620001976200019e565b5b50919050565b7f4e487b7100000000000000000000000000000000000000000000000000000000600052602260045260246000fd5b612bf680620001dd6000396000f3fe608060405234801561001057600080fd5b50600436106100ea5760003560e01c8063695850fb1161008c578063a22cb46511610066578063a22cb4651461025b578063b88d4fde14610277578063c87b56dd14610293578063e985e9c5146102c3576100ea565b8063695850fb146101f157806370a082311461020d57806395d89b411461023d576100ea565b8063095ea7b3116100c8578063095ea7b31461016d57806323b872dd1461018957806342842e0e146101a55780636352211e146101c1576100ea565b806301ffc9a7146100ef57806306fdde031461011f578063081812fc1461013d575b600080fd5b61010960048036038101906101049190611c62565b6102f3565b60405161011691906120a9565b60405180910390f35b6101276103d5565b60405161013491906120c4565b60405180910390f35b61015760048036038101906101529190611cf5565b610467565b6040516101649190612042565b60405180910390f35b61018760048036038101906101829190611c26565b6104ec565b005b6101a3600480360381019061019e9190611b20565b610604565b005b6101bf60048036038101906101ba9190611b20565b610664565b005b6101db60048036038101906101d69190611cf5565b610684565b6040516101e89190612042565b60405180910390f35b61020b60048036038101906102069190611cb4565b610736565b005b61022760048036038101906102229190611abb565b610766565b60405161023491906122e6565b60405180910390f35b61024561081e565b60405161025291906120c4565b60405180910390f35b61027560048036038101906102709190611bea565b6108b0565b005b610291600480360381019061028c9190611b6f565b6108c6565b005b6102ad60048036038101906102a89190611cf5565b610928565b6040516102ba91906120c4565b60405180910390f35b6102dd60048036038101906102d89190611ae4565b61093a565b6040516102ea91906120a9565b60405180910390f35b60007f80ac58cd000000000000000000000000000000000000000000000000000000007bffffffffffffffffffffffffffffffffffffffffffffffffffffffff1916827bffffffffffffffffffffffffffffffffffffffffffffffffffffffff191614806103be57507f5b5e139f000000000000000000000000000000000000000000000000000000007bffffffffffffffffffffffffffffffffffffffffffffffffffffffff1916827bffffffffffffffffffffffffffffffffffffffffffffffffffffffff1916145b806103ce57506103cd826109ce565b5b9050919050565b6060600080546103e49061253c565b80601f01602080910402602001604051908101604052809291908181526020018280546104109061253c565b801561045d5780601f106104325761010080835404028352916020019161045d565b820191906000526020600020905b81548152906001019060200180831161044057829003601f168201915b5050505050905090565b600061047282610a38565b6104b1576040517f08c379a00000000000000000000000000000000000000000000000000000000081526004016104a890612266565b60405180910390fd5b6004600083815260200190815260200160002060009054906101000a900473ffffffffffffffffffffffffffffffffffffffff169050919050565b60006104f782610684565b90508073ffffffffffffffffffffffffffffffffffffffff168373ffffffffffffffffffffffffffffffffffffffff161415610568576040517f08c379a000000000000000000000000000000000000000000000000000000000815260040161055f906122a6565b60405180910390fd5b8073ffffffffffffffffffffffffffffffffffffffff16610587610aa4565b73ffffffffffffffffffffffffffffffffffffffff1614806105b657506105b5816105b0610aa4565b61093a565b5b6105f5576040517f08c379a00000000000000000000000000000000000000000000000000000000081526004016105ec906121a6565b60405180910390fd5b6105ff8383610aac565b505050565b61061561060f610aa4565b82610b65565b610654576040517f08c379a000000000000000000000000000000000000000000000000000000000815260040161064b906122c6565b60405180910390fd5b61065f838383610c43565b505050565b61067f838383604051806020016040528060008152506108c6565b505050565b6000806002600084815260200190815260200160002060009054906101000a900473ffffffffffffffffffffffffffffffffffffffff169050600073ffffffffffffffffffffffffffffffffffffffff168173ffffffffffffffffffffffffffffffffffffffff16141561072d576040517f08c379a0000000000000000000000000000000000000000000000000000000008152600401610724906121e6565b60405180910390fd5b80915050919050565b60006107426007610eaa565b905061074e6007610eb8565b6107583382610ece565b6107628183610eec565b5050565b60008073ffffffffffffffffffffffffffffffffffffffff168273ffffffffffffffffffffffffffffffffffffffff1614156107d7576040517f08c379a00000000000000000000000000000000000000000000000000000000081526004016107ce906121c6565b60405180910390fd5b600360008373ffffffffffffffffffffffffffffffffffffffff1673ffffffffffffffffffffffffffffffffffffffff168152602001908152602001600020549050919050565b60606001805461082d9061253c565b80601f01602080910402602001604051908101604052809291908181526020018280546108599061253c565b80156108a65780601f1061087b576101008083540402835291602001916108a6565b820191906000526020600020905b81548152906001019060200180831161088957829003601f168201915b5050505050905090565b6108c26108bb610aa4565b8383610f60565b5050565b6108d76108d1610aa4565b83610b65565b610916576040517f08c379a000000000000000000000000000000000000000000000000000000000815260040161090d906122c6565b60405180910390fd5b610922848484846110cd565b50505050565b606061093382611129565b9050919050565b6000600560008473ffffffffffffffffffffffffffffffffffffffff1673ffffffffffffffffffffffffffffffffffffffff16815260200190815260200160002060008373ffffffffffffffffffffffffffffffffffffffff1673ffffffffffffffffffffffffffffffffffffffff16815260200190815260200160002060009054906101000a900460ff16905092915050565b60007f01ffc9a7000000000000000000000000000000000000000000000000000000007bffffffffffffffffffffffffffffffffffffffffffffffffffffffff1916827bffffffffffffffffffffffffffffffffffffffffffffffffffffffff1916149050919050565b60008073ffffffffffffffffffffffffffffffffffffffff166002600084815260200190815260200160002060009054906101000a900473ffffffffffffffffffffffffffffffffffffffff1673ffffffffffffffffffffffffffffffffffffffff1614159050919050565b600033905090565b816004600083815260200190815260200160002060006101000a81548173ffffffffffffffffffffffffffffffffffffffff021916908373ffffffffffffffffffffffffffffffffffffffff160217905550808273ffffffffffffffffffffffffffffffffffffffff16610b1f83610684565b73ffffffffffffffffffffffffffffffffffffffff167f8c5be1e5ebec7d5bd14f71427d1e84f3dd0314c0f7b2291e5b200ac8c7c3b92560405160405180910390a45050565b6000610b7082610a38565b610baf576040517f08c379a0000000000000000000000000000000000000000000000000000000008152600401610ba690612186565b60405180910390fd5b6000610bba83610684565b90508073ffffffffffffffffffffffffffffffffffffffff168473ffffffffffffffffffffffffffffffffffffffff161480610c2957508373ffffffffffffffffffffffffffffffffffffffff16610c1184610467565b73ffffffffffffffffffffffffffffffffffffffff16145b80610c3a5750610c39818561093a565b5b91505092915050565b8273ffffffffffffffffffffffffffffffffffffffff16610c6382610684565b73ffffffffffffffffffffffffffffffffffffffff1614610cb9576040517f08c379a0000000000000000000000000000000000000000000000000000000008152600401610cb090612106565b60405180910390fd5b600073ffffffffffffffffffffffffffffffffffffffff168273ffffffffffffffffffffffffffffffffffffffff161415610d29576040517f08c379a0000000000000000000000000000000000000000000000000000000008152600401610d2090612146565b60405180910390fd5b610d3483838361127b565b610d3f600082610aac565b6001600360008573ffffffffffffffffffffffffffffffffffffffff1673ffffffffffffffffffffffffffffffffffffffff1681526020019081526020016000206000828254610d8f9190612452565b925050819055506001600360008473ffffffffffffffffffffffffffffffffffffffff1673ffffffffffffffffffffffffffffffffffffffff1681526020019081526020016000206000828254610de691906123cb565b92505081905550816002600083815260200190815260200160002060006101000a81548173ffffffffffffffffffffffffffffffffffffffff021916908373ffffffffffffffffffffffffffffffffffffffff160217905550808273ffffffffffffffffffffffffffffffffffffffff168473ffffffffffffffffffffffffffffffffffffffff167fddf252ad1be2c89b69c2b068fc378daa952ba7f163c4a11628f55a4df523b3ef60405160405180910390a4610ea5838383611280565b505050565b600081600001549050919050565b6001816000016000828254019250508190555050565b610ee8828260405180602001604052806000815250611285565b5050565b610ef582610a38565b610f34576040517f08c379a0000000000000000000000000000000000000000000000000000000008152600401610f2b90612206565b60405180910390fd5b80600660008481526020019081526020016000209080519060200190610f5b9291906118df565b505050565b8173ffffffffffffffffffffffffffffffffffffffff168373ffffffffffffffffffffffffffffffffffffffff161415610fcf576040517f08c379a0000000000000000000000000000000000000000000000000000000008152600401610fc690612166565b60405180910390fd5b80600560008573ffffffffffffffffffffffffffffffffffffffff1673ffffffffffffffffffffffffffffffffffffffff16815260200190815260200160002060008473ffffffffffffffffffffffffffffffffffffffff1673ffffffffffffffffffffffffffffffffffffffff16815260200190815260200160002060006101000a81548160ff0219169083151502179055508173ffffffffffffffffffffffffffffffffffffffff168373ffffffffffffffffffffffffffffffffffffffff167f17307eab39ab6107e8899845ad3d59bd9653f200f220920489ca2b5937696c31836040516110c091906120a9565b60405180910390a3505050565b6110d8848484610c43565b6110e4848484846112e0565b611123576040517f08c379a000000000000000000000000000000000000000000000000000000000815260040161111a906120e6565b60405180910390fd5b50505050565b606061113482610a38565b611173576040517f08c379a000000000000000000000000000000000000000000000000000000000815260040161116a90612246565b60405180910390fd5b60006006600084815260200190815260200160002080546111939061253c565b80601f01602080910402602001604051908101604052809291908181526020018280546111bf9061253c565b801561120c5780601f106111e15761010080835404028352916020019161120c565b820191906000526020600020905b8154815290600101906020018083116111ef57829003601f168201915b50505050509050600061121d611477565b9050600081511415611233578192505050611276565b60008251111561126857808260405160200161125092919061201e565b60405160208183030381529060405292505050611276565b6112718461148e565b925050505b919050565b505050565b505050565b61128f8383611535565b61129c60008484846112e0565b6112db576040517f08c379a00000000000000000000000000000000000000000000000000000000081526004016112d2906120e6565b60405180910390fd5b505050565b60006113018473ffffffffffffffffffffffffffffffffffffffff1661170f565b1561146a578373ffffffffffffffffffffffffffffffffffffffff1663150b7a0261132a610aa4565b8786866040518563ffffffff1660e01b815260040161134c949392919061205d565b602060405180830381600087803b15801561136657600080fd5b505af192505050801561139757506040513d601f19601f820116820180604052508101906113949190611c8b565b60015b61141a573d80600081146113c7576040519150601f19603f3d011682016040523d82523d6000602084013e6113cc565b606091505b50600081511415611412576040517f08c379a0000000000000000000000000000000000000000000000000000000008152600401611409906120e6565b60405180910390fd5b805181602001fd5b63150b7a0260e01b7bffffffffffffffffffffffffffffffffffffffffffffffffffffffff1916817bffffffffffffffffffffffffffffffffffffffffffffffffffffffff19161491505061146f565b600190505b949350505050565b606060405180602001604052806000815250905090565b606061149982610a38565b6114d8576040517f08c379a00000000000000000000000000000000000000000000000000000000081526004016114cf90612286565b60405180910390fd5b60006114e2611477565b90506000815111611502576040518060200160405280600081525061152d565b8061150c84611732565b60405160200161151d92919061201e565b6040516020818303038152906040525b915050919050565b600073ffffffffffffffffffffffffffffffffffffffff168273ffffffffffffffffffffffffffffffffffffffff1614156115a5576040517f08c379a000000000000000000000000000000000000000000000000000000000815260040161159c90612226565b60405180910390fd5b6115ae81610a38565b156115ee576040517f08c379a00000000000000000000000000000000000000000000000000000000081526004016115e590612126565b60405180910390fd5b6115fa6000838361127b565b6001600360008473ffffffffffffffffffffffffffffffffffffffff1673ffffffffffffffffffffffffffffffffffffffff168152602001908152602001600020600082825461164a91906123cb565b92505081905550816002600083815260200190815260200160002060006101000a81548173ffffffffffffffffffffffffffffffffffffffff021916908373ffffffffffffffffffffffffffffffffffffffff160217905550808273ffffffffffffffffffffffffffffffffffffffff16600073ffffffffffffffffffffffffffffffffffffffff167fddf252ad1be2c89b69c2b068fc378daa952ba7f163c4a11628f55a4df523b3ef60405160405180910390a461170b60008383611280565b5050565b6000808273ffffffffffffffffffffffffffffffffffffffff163b119050919050565b6060600082141561177a576040518060400160405280600181526020017f300000000000000000000000000000000000000000000000000000000000000081525090506118da565b600082905060005b600082146117ac5780806117959061259f565b915050600a826117a59190612421565b9150611782565b60008167ffffffffffffffff8111156117ee577f4e487b7100000000000000000000000000000000000000000000000000000000600052604160045260246000fd5b6040519080825280601f01601f1916602001820160405280156118205781602001600182028036833780820191505090505b5090505b600085146118d3576001826118399190612452565b9150600a8561184891906125e8565b603061185491906123cb565b60f81b818381518110611890577f4e487b7100000000000000000000000000000000000000000000000000000000600052603260045260246000fd5b60200101907effffffffffffffffffffffffffffffffffffffffffffffffffffffffffffff1916908160001a905350600a856118cc9190612421565b9450611824565b8093505050505b919050565b8280546118eb9061253c565b90600052602060002090601f01602090048101928261190d5760008555611954565b82601f1061192657805160ff1916838001178555611954565b82800160010185558215611954579182015b82811115611953578251825591602001919060010190611938565b5b5090506119619190611965565b5090565b5b8082111561197e576000816000905550600101611966565b5090565b600061199561199084612326565b612301565b9050828152602081018484840111156119ad57600080fd5b6119b88482856124fa565b509392505050565b60006119d36119ce84612357565b612301565b9050828152602081018484840111156119eb57600080fd5b6119f68482856124fa565b509392505050565b600081359050611a0d81612b64565b92915050565b600081359050611a2281612b7b565b92915050565b600081359050611a3781612b92565b92915050565b600081519050611a4c81612b92565b92915050565b600082601f830112611a6357600080fd5b8135611a73848260208601611982565b91505092915050565b600082601f830112611a8d57600080fd5b8135611a9d8482602086016119c0565b91505092915050565b600081359050611ab581612ba9565b92915050565b600060208284031215611acd57600080fd5b6000611adb848285016119fe565b91505092915050565b60008060408385031215611af757600080fd5b6000611b05858286016119fe565b9250506020611b16858286016119fe565b9150509250929050565b600080600060608486031215611b3557600080fd5b6000611b43868287016119fe565b9350506020611b54868287016119fe565b9250506040611b6586828701611aa6565b9150509250925092565b60008060008060808587031215611b8557600080fd5b6000611b93878288016119fe565b9450506020611ba4878288016119fe565b9350506040611bb587828801611aa6565b925050606085013567ffffffffffffffff811115611bd257600080fd5b611bde87828801611a52565b91505092959194509250565b60008060408385031215611bfd57600080fd5b6000611c0b858286016119fe565b9250506020611c1c85828601611a13565b9150509250929050565b60008060408385031215611c3957600080fd5b6000611c47858286016119fe565b9250506020611c5885828601611aa6565b9150509250929050565b600060208284031215611c7457600080fd5b6000611c8284828501611a28565b91505092915050565b600060208284031215611c9d57600080fd5b6000611cab84828501611a3d565b91505092915050565b600060208284031215611cc657600080fd5b600082013567ffffffffffffffff811115611ce057600080fd5b611cec84828501611a7c565b91505092915050565b600060208284031215611d0757600080fd5b6000611d1584828501611aa6565b91505092915050565b611d2781612486565b82525050565b611d3681612498565b82525050565b6000611d4782612388565b611d51818561239e565b9350611d61818560208601612509565b611d6a816126d5565b840191505092915050565b6000611d8082612393565b611d8a81856123af565b9350611d9a818560208601612509565b611da3816126d5565b840191505092915050565b6000611db982612393565b611dc381856123c0565b9350611dd3818560208601612509565b80840191505092915050565b6000611dec6032836123af565b9150611df7826126e6565b604082019050919050565b6000611e0f6025836123af565b9150611e1a82612735565b604082019050919050565b6000611e32601c836123af565b9150611e3d82612784565b602082019050919050565b6000611e556024836123af565b9150611e60826127ad565b604082019050919050565b6000611e786019836123af565b9150611e83826127fc565b602082019050919050565b6000611e9b602c836123af565b9150611ea682612825565b604082019050919050565b6000611ebe6038836123af565b9150611ec982612874565b604082019050919050565b6000611ee1602a836123af565b9150611eec826128c3565b604082019050919050565b6000611f046029836123af565b9150611f0f82612912565b604082019050919050565b6000611f27602e836123af565b9150611f3282612961565b604082019050919050565b6000611f4a6020836123af565b9150611f55826129b0565b602082019050919050565b6000611f6d6031836123af565b9150611f78826129d9565b604082019050919050565b6000611f90602c836123af565b9150611f9b82612a28565b604082019050919050565b6000611fb3602f836123af565b9150611fbe82612a77565b604082019050919050565b6000611fd66021836123af565b9150611fe182612ac6565b604082019050919050565b6000611ff96031836123af565b915061200482612b15565b604082019050919050565b612018816124f0565b82525050565b600061202a8285611dae565b91506120368284611dae565b91508190509392505050565b60006020820190506120576000830184611d1e565b92915050565b60006080820190506120726000830187611d1e565b61207f6020830186611d1e565b61208c604083018561200f565b818103606083015261209e8184611d3c565b905095945050505050565b60006020820190506120be6000830184611d2d565b92915050565b600060208201905081810360008301526120de8184611d75565b905092915050565b600060208201905081810360008301526120ff81611ddf565b9050919050565b6000602082019050818103600083015261211f81611e02565b9050919050565b6000602082019050818103600083015261213f81611e25565b9050919050565b6000602082019050818103600083015261215f81611e48565b9050919050565b6000602082019050818103600083015261217f81611e6b565b9050919050565b6000602082019050818103600083015261219f81611e8e565b9050919050565b600060208201905081810360008301526121bf81611eb1565b9050919050565b600060208201905081810360008301526121df81611ed4565b9050919050565b600060208201905081810360008301526121ff81611ef7565b9050919050565b6000602082019050818103600083015261221f81611f1a565b9050919050565b6000602082019050818103600083015261223f81611f3d565b9050919050565b6000602082019050818103600083015261225f81611f60565b9050919050565b6000602082019050818103600083015261227f81611f83565b9050919050565b6000602082019050818103600083015261229f81611fa6565b9050919050565b600060208201905081810360008301526122bf81611fc9565b9050919050565b600060208201905081810360008301526122df81611fec565b9050919050565b60006020820190506122fb600083018461200f565b92915050565b600061230b61231c565b9050612317828261256e565b919050565b6000604051905090565b600067ffffffffffffffff821115612341576123406126a6565b5b61234a826126d5565b9050602081019050919050565b600067ffffffffffffffff821115612372576123716126a6565b5b61237b826126d5565b9050602081019050919050565b600081519050919050565b600081519050919050565b600082825260208201905092915050565b600082825260208201905092915050565b600081905092915050565b60006123d6826124f0565b91506123e1836124f0565b9250827fffffffffffffffffffffffffffffffffffffffffffffffffffffffffffffffff0382111561241657612415612619565b5b828201905092915050565b600061242c826124f0565b9150612437836124f0565b92508261244757612446612648565b5b828204905092915050565b600061245d826124f0565b9150612468836124f0565b92508282101561247b5761247a612619565b5b828203905092915050565b6000612491826124d0565b9050919050565b60008115159050919050565b60007fffffffff0000000000000000000000000000000000000000000000000000000082169050919050565b600073ffffffffffffffffffffffffffffffffffffffff82169050919050565b6000819050919050565b82818337600083830152505050565b60005b8381101561252757808201518184015260208101905061250c565b83811115612536576000848401525b50505050565b6000600282049050600182168061255457607f821691505b6020821081141561256857612567612677565b5b50919050565b612577826126d5565b810181811067ffffffffffffffff82111715612596576125956126a6565b5b80604052505050565b60006125aa826124f0565b91507fffffffffffffffffffffffffffffffffffffffffffffffffffffffffffffffff8214156125dd576125dc612619565b5b600182019050919050565b60006125f3826124f0565b91506125fe836124f0565b92508261260e5761260d612648565b5b828206905092915050565b7f4e487b7100000000000000000000000000000000000000000000000000000000600052601160045260246000fd5b7f4e487b7100000000000000000000000000000000000000000000000000000000600052601260045260246000fd5b7f4e487b7100000000000000000000000000000000000000000000000000000000600052602260045260246000fd5b7f4e487b7100000000000000000000000000000000000000000000000000000000600052604160045260246000fd5b6000601f19601f8301169050919050565b7f4552433732313a207472616e7366657220746f206e6f6e20455243373231526560008201527f63656976657220696d706c656d656e7465720000000000000000000000000000602082015250565b7f4552433732313a207472616e736665722066726f6d20696e636f72726563742060008201527f6f776e6572000000000000000000000000000000000000000000000000000000602082015250565b7f4552433732313a20746f6b656e20616c7265616479206d696e74656400000000600082015250565b7f4552433732313a207472616e7366657220746f20746865207a65726f2061646460008201527f7265737300000000000000000000000000000000000000000000000000000000602082015250565b7f4552433732313a20617070726f766520746f2063616c6c657200000000000000600082015250565b7f4552433732313a206f70657261746f7220717565727920666f72206e6f6e657860008201527f697374656e7420746f6b656e0000000000000000000000000000000000000000602082015250565b7f4552433732313a20617070726f76652063616c6c6572206973206e6f74206f7760008201527f6e6572206e6f7220617070726f76656420666f7220616c6c0000000000000000602082015250565b7f4552433732313a2062616c616e636520717565727920666f7220746865207a6560008201527f726f206164647265737300000000000000000000000000000000000000000000602082015250565b7f4552433732313a206f776e657220717565727920666f72206e6f6e657869737460008201527f656e7420746f6b656e0000000000000000000000000000000000000000000000602082015250565b7f45524337323155524953746f726167653a2055524920736574206f66206e6f6e60008201527f6578697374656e7420746f6b656e000000000000000000000000000000000000602082015250565b7f4552433732313a206d696e7420746f20746865207a65726f2061646472657373600082015250565b7f45524337323155524953746f726167653a2055524920717565727920666f722060008201527f6e6f6e6578697374656e7420746f6b656e000000000000000000000000000000602082015250565b7f4552433732313a20617070726f76656420717565727920666f72206e6f6e657860008201527f697374656e7420746f6b656e0000000000000000000000000000000000000000602082015250565b7f4552433732314d657461646174613a2055524920717565727920666f72206e6f60008201527f6e6578697374656e7420746f6b656e0000000000000000000000000000000000602082015250565b7f4552433732313a20617070726f76616c20746f2063757272656e74206f776e6560008201527f7200000000000000000000000000000000000000000000000000000000000000602082015250565b7f4552433732313a207472616e736665722063616c6c6572206973206e6f74206f60008201527f776e6572206e6f7220617070726f766564000000000000000000000000000000602082015250565b612b6d81612486565b8114612b7857600080fd5b50565b612b8481612498565b8114612b8f57600080fd5b50565b612b9b816124a4565b8114612ba657600080fd5b50565b612bb2816124f0565b8114612bbd57600080fd5b5056fea26469706673582212204a4aadc9c0ba90659a3e8011e873c23428755f180ae3360baf07e0cbe2767e2664736f6c63430008040033",
	"linkReferences": {},
	"deployedLinkReferences": {}
}